{
  "_format": "hh3-artifact-1",
  "contractName": "Nexora",
  "sourceName": "contracts/Nexora.sol",
  "abi": [
    {
      "inputs": [],
      "stateMutability": "nonpayable",
      "type": "constructor"
    },
    {
      "inputs": [
        {
          "internalType": "address",
          "name": "spender",
          "type": "address"
        },
        {
          "internalType": "uint256",
          "name": "allowance",
          "type": "uint256"
        },
        {
          "internalType": "uint256",
          "name": "needed",
          "type": "uint256"
        }
      ],
      "name": "ERC20InsufficientAllowance",
      "type": "error"
    },
    {
      "inputs": [
        {
          "internalType": "address",
          "name": "sender",
          "type": "address"
        },
        {
          "internalType": "uint256",
          "name": "balance",
          "type": "uint256"
        },
        {
          "internalType": "uint256",
          "name": "needed",
          "type": "uint256"
        }
      ],
      "name": "ERC20InsufficientBalance",
      "type": "error"
    },
    {
      "inputs": [
        {
          "internalType": "address",
          "name": "approver",
          "type": "address"
        }
      ],
      "name": "ERC20InvalidApprover",
      "type": "error"
    },
    {
      "inputs": [
        {
          "internalType": "address",
          "name": "receiver",
          "type": "address"
        }
      ],
      "name": "ERC20InvalidReceiver",
      "type": "error"
    },
    {
      "inputs": [
        {
          "internalType": "address",
          "name": "sender",
          "type": "address"
        }
      ],
      "name": "ERC20InvalidSender",
      "type": "error"
    },
    {
      "inputs": [
        {
          "internalType": "address",
          "name": "spender",
          "type": "address"
        }
      ],
      "name": "ERC20InvalidSpender",
      "type": "error"
    },
    {
      "inputs": [],
      "name": "EnforcedPause",
      "type": "error"
    },
    {
      "inputs": [],
      "name": "ExpectedPause",
      "type": "error"
    },
    {
      "inputs": [
        {
          "internalType": "address",
          "name": "owner",
          "type": "address"
        }
      ],
      "name": "OwnableInvalidOwner",
      "type": "error"
    },
    {
      "inputs": [
        {
          "internalType": "address",
          "name": "account",
          "type": "address"
        }
      ],
      "name": "OwnableUnauthorizedAccount",
      "type": "error"
    },
    {
      "anonymous": false,
      "inputs": [
        {
          "indexed": true,
          "internalType": "address",
          "name": "owner",
          "type": "address"
        },
        {
          "indexed": true,
          "internalType": "address",
          "name": "spender",
          "type": "address"
        },
        {
          "indexed": false,
          "internalType": "uint256",
          "name": "value",
          "type": "uint256"
        }
      ],
      "name": "Approval",
      "type": "event"
    },
    {
      "anonymous": false,
      "inputs": [
        {
          "indexed": true,
          "internalType": "address",
          "name": "previousOwner",
          "type": "address"
        },
        {
          "indexed": true,
          "internalType": "address",
          "name": "newOwner",
          "type": "address"
        }
      ],
      "name": "OwnershipTransferred",
      "type": "event"
    },
    {
      "anonymous": false,
      "inputs": [
        {
          "indexed": false,
          "internalType": "address",
          "name": "account",
          "type": "address"
        }
      ],
      "name": "Paused",
      "type": "event"
    },
    {
      "anonymous": false,
      "inputs": [
        {
          "indexed": true,
          "internalType": "address",
          "name": "from",
          "type": "address"
        },
        {
          "indexed": true,
          "internalType": "address",
          "name": "to",
          "type": "address"
        },
        {
          "indexed": false,
          "internalType": "uint256",
          "name": "value",
          "type": "uint256"
        }
      ],
      "name": "Transfer",
      "type": "event"
    },
    {
      "anonymous": false,
      "inputs": [
        {
          "indexed": false,
          "internalType": "address",
          "name": "account",
          "type": "address"
        }
      ],
      "name": "Unpaused",
      "type": "event"
    },
    {
      "inputs": [],
      "name": "MAX_SUPPLY",
      "outputs": [
        {
          "internalType": "uint256",
          "name": "",
          "type": "uint256"
        }
      ],
      "stateMutability": "view",
      "type": "function"
    },
    {
      "inputs": [
        {
          "internalType": "address",
          "name": "owner",
          "type": "address"
        },
        {
          "internalType": "address",
          "name": "spender",
          "type": "address"
        }
      ],
      "name": "allowance",
      "outputs": [
        {
          "internalType": "uint256",
          "name": "",
          "type": "uint256"
        }
      ],
      "stateMutability": "view",
      "type": "function"
    },
    {
      "inputs": [
        {
          "internalType": "address",
          "name": "spender",
          "type": "address"
        },
        {
          "internalType": "uint256",
          "name": "value",
          "type": "uint256"
        }
      ],
      "name": "approve",
      "outputs": [
        {
          "internalType": "bool",
          "name": "",
          "type": "bool"
        }
      ],
      "stateMutability": "nonpayable",
      "type": "function"
    },
    {
      "inputs": [
        {
          "internalType": "address",
          "name": "account",
          "type": "address"
        }
      ],
      "name": "balanceOf",
      "outputs": [
        {
          "internalType": "uint256",
          "name": "",
          "type": "uint256"
        }
      ],
      "stateMutability": "view",
      "type": "function"
    },
    {
      "inputs": [
        {
          "internalType": "uint256",
          "name": "value",
          "type": "uint256"
        }
      ],
      "name": "burn",
      "outputs": [],
      "stateMutability": "nonpayable",
      "type": "function"
    },
    {
      "inputs": [
        {
          "internalType": "address",
          "name": "account",
          "type": "address"
        },
        {
          "internalType": "uint256",
          "name": "value",
          "type": "uint256"
        }
      ],
      "name": "burnFrom",
      "outputs": [],
      "stateMutability": "nonpayable",
      "type": "function"
    },
    {
      "inputs": [],
      "name": "decimals",
      "outputs": [
        {
          "internalType": "uint8",
          "name": "",
          "type": "uint8"
        }
      ],
      "stateMutability": "view",
      "type": "function"
    },
    {
      "inputs": [
        {
          "internalType": "address",
          "name": "to",
          "type": "address"
        },
        {
          "internalType": "uint256",
          "name": "amount",
          "type": "uint256"
        }
      ],
      "name": "mint",
      "outputs": [],
      "stateMutability": "nonpayable",
      "type": "function"
    },
    {
      "inputs": [],
      "name": "name",
      "outputs": [
        {
          "internalType": "string",
          "name": "",
          "type": "string"
        }
      ],
      "stateMutability": "view",
      "type": "function"
    },
    {
      "inputs": [],
      "name": "owner",
      "outputs": [
        {
          "internalType": "address",
          "name": "",
          "type": "address"
        }
      ],
      "stateMutability": "view",
      "type": "function"
    },
    {
      "inputs": [],
      "name": "pause",
      "outputs": [],
      "stateMutability": "nonpayable",
      "type": "function"
    },
    {
      "inputs": [],
      "name": "paused",
      "outputs": [
        {
          "internalType": "bool",
          "name": "",
          "type": "bool"
        }
      ],
      "stateMutability": "view",
      "type": "function"
    },
    {
      "inputs": [],
      "name": "renounceOwnership",
      "outputs": [],
      "stateMutability": "nonpayable",
      "type": "function"
    },
    {
      "inputs": [],
      "name": "symbol",
      "outputs": [
        {
          "internalType": "string",
          "name": "",
          "type": "string"
        }
      ],
      "stateMutability": "view",
      "type": "function"
    },
    {
      "inputs": [],
      "name": "totalSupply",
      "outputs": [
        {
          "internalType": "uint256",
          "name": "",
          "type": "uint256"
        }
      ],
      "stateMutability": "view",
      "type": "function"
    },
    {
      "inputs": [
        {
          "internalType": "address",
          "name": "to",
          "type": "address"
        },
        {
          "internalType": "uint256",
          "name": "value",
          "type": "uint256"
        }
      ],
      "name": "transfer",
      "outputs": [
        {
          "internalType": "bool",
          "name": "",
          "type": "bool"
        }
      ],
      "stateMutability": "nonpayable",
      "type": "function"
    },
    {
      "inputs": [
        {
          "internalType": "address",
          "name": "from",
          "type": "address"
        },
        {
          "internalType": "address",
          "name": "to",
          "type": "address"
        },
        {
          "internalType": "uint256",
          "name": "value",
          "type": "uint256"
        }
      ],
      "name": "transferFrom",
      "outputs": [
        {
          "internalType": "bool",
          "name": "",
          "type": "bool"
        }
      ],
      "stateMutability": "nonpayable",
      "type": "function"
    },
    {
      "inputs": [
        {
          "internalType": "address",
          "name": "newOwner",
          "type": "address"
        }
      ],
      "name": "transferOwnership",
      "outputs": [],
      "stateMutability": "nonpayable",
      "type": "function"
    },
    {
      "inputs": [],
      "name": "unpause",
      "outputs": [],
      "stateMutability": "nonpayable",
      "type": "function"
    }
  ],
  "bytecode": "0x608060405234801561000f575f5ffd5b5033604051806040016040528060068152602001654e65786f726160d01b81525060405180604001604052806003815260200162272c2960e91b815250816003908161005b9190610361565b5060046100688282610361565b5050506001600160a01b03811661009957604051631e4fbdf760e01b81525f60048201526024015b60405180910390fd5b6100a2816100ca565b506100c5336100b36012600a610514565b6100c090620f4240610529565b610123565b610553565b600580546001600160a01b03838116610100818102610100600160a81b031985161790945560405193909204169182907f8be0079c531659141344cd1fd0a4f28419497f9722a3daafe3b4186f6b6457e0905f90a35050565b6001600160a01b03821661014c5760405163ec442f0560e01b81525f6004820152602401610090565b6101575f838361015b565b5050565b61016683838361016b565b505050565b61017361017e565b6101668383836101a4565b60055460ff16156101a25760405163d93c066560e01b815260040160405180910390fd5b565b6001600160a01b0383166101ce578060025f8282546101c39190610540565b9091555061023e9050565b6001600160a01b0383165f90815260208190526040902054818110156102205760405163391434e360e21b81526001600160a01b03851660048201526024810182905260448101839052606401610090565b6001600160a01b0384165f9081526020819052604090209082900390555b6001600160a01b03821661025a57600280548290039055610278565b6001600160a01b0382165f9081526020819052604090208054820190555b816001600160a01b0316836001600160a01b03167fddf252ad1be2c89b69c2b068fc378daa952ba7f163c4a11628f55a4df523b3ef836040516102bd91815260200190565b60405180910390a3505050565b634e487b7160e01b5f52604160045260245ffd5b600181811c908216806102f257607f821691505b60208210810361031057634e487b7160e01b5f52602260045260245ffd5b50919050565b601f82111561016657805f5260205f20601f840160051c8101602085101561033b5750805b601f840160051c820191505b8181101561035a575f8155600101610347565b5050505050565b81516001600160401b0381111561037a5761037a6102ca565b61038e8161038884546102de565b84610316565b6020601f8211600181146103c0575f83156103a95750848201515b5f19600385901b1c1916600184901b17845561035a565b5f84815260208120601f198516915b828110156103ef57878501518255602094850194600190920191016103cf565b508482101561040c57868401515f19600387901b60f8161c191681555b50505050600190811b01905550565b634e487b7160e01b5f52601160045260245ffd5b6001815b600184111561046a5780850481111561044e5761044e61041b565b600184161561045c57908102905b60019390931c928002610433565b935093915050565b5f826104805750600161050e565b8161048c57505f61050e565b81600181146104a257600281146104ac576104c8565b600191505061050e565b60ff8411156104bd576104bd61041b565b50506001821b61050e565b5060208310610133831016604e8410600b84101617156104eb575081810a61050e565b6104f75f19848461042f565b805f190482111561050a5761050a61041b565b0290505b92915050565b5f61052260ff841683610472565b9392505050565b808202811582820484141761050e5761050e61041b565b8082018082111561050e5761050e61041b565b610b1f806105605f395ff3fe608060405234801561000f575f5ffd5b506004361061011c575f3560e01c80635c975abb116100a95780638da5cb5b1161006e5780638da5cb5b1461022d57806395d89b4114610256578063a9059cbb1461025e578063dd62ed3e14610271578063f2fde38b146102a9575f5ffd5b80635c975abb146101d757806370a08231146101e2578063715018a61461020a57806379cc6790146102125780638456cb5914610225575f5ffd5b8063313ce567116100ef578063313ce5671461018657806332cb6b0c146101955780633f4ba83a146101a757806340c10f19146101b157806342966c68146101c4575f5ffd5b806306fdde0314610120578063095ea7b31461013e57806318160ddd1461016157806323b872dd14610173575b5f5ffd5b6101286102bc565b6040516101359190610978565b60405180910390f35b61015161014c3660046109c8565b61034c565b6040519015158152602001610135565b6002545b604051908152602001610135565b6101516101813660046109f0565b610365565b60405160128152602001610135565b6101656a52b7d2dcc80cd2e400000081565b6101af610388565b005b6101af6101bf3660046109c8565b61039a565b6101af6101d2366004610a2a565b610419565b60055460ff16610151565b6101656101f0366004610a41565b6001600160a01b03165f9081526020819052604090205490565b6101af610426565b6101af6102203660046109c8565b610437565b6101af61044c565b60055461010090046001600160a01b03166040516001600160a01b039091168152602001610135565b61012861045c565b61015161026c3660046109c8565b61046b565b61016561027f366004610a61565b6001600160a01b039182165f90815260016020908152604080832093909416825291909152205490565b6101af6102b7366004610a41565b610478565b6060600380546102cb90610a92565b80601f01602080910402602001604051908101604052809291908181526020018280546102f790610a92565b80156103425780601f1061031957610100808354040283529160200191610342565b820191905f5260205f20905b81548152906001019060200180831161032557829003601f168201915b5050505050905090565b5f336103598185856104b2565b60019150505b92915050565b5f336103728582856104c4565b61037d858585610540565b506001949350505050565b61039061059d565b6103986105d0565b565b6103a261059d565b6a52b7d2dcc80cd2e4000000816103b860025490565b6103c29190610aca565b111561040b5760405162461bcd60e51b815260206004820152601360248201527213585e081cdd5c1c1b1e48195e18d959591959606a1b60448201526064015b60405180910390fd5b6104158282610622565b5050565b6104233382610656565b50565b61042e61059d565b6103985f61068a565b6104428233836104c4565b6104158282610656565b61045461059d565b6103986106e3565b6060600480546102cb90610a92565b5f33610359818585610540565b61048061059d565b6001600160a01b0381166104a957604051631e4fbdf760e01b81525f6004820152602401610402565b6104238161068a565b6104bf8383836001610720565b505050565b6001600160a01b038381165f908152600160209081526040808320938616835292905220545f1981101561053a578181101561052c57604051637dc7a0d960e11b81526001600160a01b03841660048201526024810182905260448101839052606401610402565b61053a84848484035f610720565b50505050565b6001600160a01b03831661056957604051634b637e8f60e11b81525f6004820152602401610402565b6001600160a01b0382166105925760405163ec442f0560e01b81525f6004820152602401610402565b6104bf8383836107f2565b6005546001600160a01b036101009091041633146103985760405163118cdaa760e01b8152336004820152602401610402565b6105d86107fd565b6005805460ff191690557f5db9ee0a495bf2e6ff9c91a7834c1ba4fdd244a5e8aa4e537bd38aeae4b073aa335b6040516001600160a01b03909116815260200160405180910390a1565b6001600160a01b03821661064b5760405163ec442f0560e01b81525f6004820152602401610402565b6104155f83836107f2565b6001600160a01b03821661067f57604051634b637e8f60e11b81525f6004820152602401610402565b610415825f836107f2565b600580546001600160a01b03838116610100818102610100600160a81b031985161790945560405193909204169182907f8be0079c531659141344cd1fd0a4f28419497f9722a3daafe3b4186f6b6457e0905f90a35050565b6106eb610820565b6005805460ff191660011790557f62e78cea01bee320cd4e420270b5ea74000d11b0c9f74754ebdbfc544b05a2586106053390565b6001600160a01b0384166107495760405163e602df0560e01b81525f6004820152602401610402565b6001600160a01b03831661077257604051634a1406b160e11b81525f6004820152602401610402565b6001600160a01b038085165f908152600160209081526040808320938716835292905220829055801561053a57826001600160a01b0316846001600160a01b03167f8c5be1e5ebec7d5bd14f71427d1e84f3dd0314c0f7b2291e5b200ac8c7c3b925846040516107e491815260200190565b60405180910390a350505050565b6104bf838383610844565b60055460ff1661039857604051638dfc202b60e01b815260040160405180910390fd5b60055460ff16156103985760405163d93c066560e01b815260040160405180910390fd5b61084c610820565b6104bf8383836001600160a01b03831661087c578060025f8282546108719190610aca565b909155506108ec9050565b6001600160a01b0383165f90815260208190526040902054818110156108ce5760405163391434e360e21b81526001600160a01b03851660048201526024810182905260448101839052606401610402565b6001600160a01b0384165f9081526020819052604090209082900390555b6001600160a01b03821661090857600280548290039055610926565b6001600160a01b0382165f9081526020819052604090208054820190555b816001600160a01b0316836001600160a01b03167fddf252ad1be2c89b69c2b068fc378daa952ba7f163c4a11628f55a4df523b3ef8360405161096b91815260200190565b60405180910390a3505050565b602081525f82518060208401528060208501604085015e5f604082850101526040601f19601f83011684010191505092915050565b80356001600160a01b03811681146109c3575f5ffd5b919050565b5f5f604083850312156109d9575f5ffd5b6109e2836109ad565b946020939093013593505050565b5f5f5f60608486031215610a02575f5ffd5b610a0b846109ad565b9250610a19602085016109ad565b929592945050506040919091013590565b5f60208284031215610a3a575f5ffd5b5035919050565b5f60208284031215610a51575f5ffd5b610a5a826109ad565b9392505050565b5f5f60408385031215610a72575f5ffd5b610a7b836109ad565b9150610a89602084016109ad565b90509250929050565b600181811c90821680610aa657607f821691505b602082108103610ac457634e487b7160e01b5f52602260045260245ffd5b50919050565b8082018082111561035f57634e487b7160e01b5f52601160045260245ffdfea2646970667358221220bcaf5f7cf8242976bbe3da283b95c3b443b0551c776ece158e32ae3c3311785764736f6c634300081c0033",
  "linkReferences": {},
  "deployedLinkReferences": {},
  "immutableReferences": {},
  "inputSourceName": "project/contracts/Nexora.sol",
  "buildInfoId": "solc-0_8_28-34ae74ed6d198df113699133aa63f378fb41aa6e"
}